:100000000C9446000C945D000C945D000C945D0013
:100010000C945D000C945D000C945D000C945D00EC
:100020000C945D000C945D000C945D000C945D00DC
:100030000C945D000C945D000C945D000C945D00CC
:100040000C945D000C945D000C945D000C945D00BC
:100050000C945D000C945D000C945D000C945D00AC
:100060000C945D000C945D000C945D000C945D009C
:100070000C945D000C945D000C945D000C945D008C
:100080000C945D000C945D000C945D0011241FBE67
:10009000CFEFD0E4DEBFCDBF11E0A0E0B1E0E2E001
:1000A000F2E000E00BBF02C007900D92A631B1074D
:1000B000D9F70E9499000C94FF000C940000CF9394
:1000C000DF9300D01F92CDB7DEB789837B836A832D
:1000D00089818A3031F48A819B81BC018DE00E9444
:1000E0005F0080EC90E0FC018081882F90E08072BE
:1000F0009927892BB1F386EC90E02981FC012083BC
:1001000080E090E00F900F900F90DF91CF910895D5
:10011000CF93DF93CDB7DEB78AE790E02AE730E0F0
:10012000F9012081206EFC0120830000DF91CF9136
:100130000895CF93DF93CDB7DEB72D970FB6F89420
:10014000DEBF0FBECDBF84E290E02FEFFC01208325
:1001500085E290E0FC0110828AE290E02FEFFC0142
:1001600020838BE290E0FC01108288EF90E09A837C
:10017000898388E0EEE0F1E0DE01169601900D92B1
:100180008A95E1F71B820E94880088E790E0FC01D5
:10019000808191819D838C8389819A819C01369590
:1001A000279536952795369527958C819D81B901A0
:1001B0000E94EB00CB018B8385E290E02B81222F04
:1001C00030E0AE014A5F5F4F240F351FF9012081F7
:1001D000FC012083DACFAA1BBB1B51E107C0AA1F79
:1001E000BB1FA617B70710F0A61BB70B881F991FD8
:1001F0005A95A9F780959095BC01CD010895F89482
:02020000FFCF2E
:1002020000000002000000005F0000000000010387
:06021200070F1F3F7FFFF4
:00000001FF
